:100000000C9450000C946D000C946D000C946D00D9
:100010000C94500F0C946D000C946D000C946D00BA
:100020000C946D000C946D000C946D000C946D009C
:100030000C946D000C946D000C946D000C946D008C
:100040000C946D000C946D000C946D000C946D007C
:100050000C946D00D80DDF0DE40DE90D120E2B0E82
:10006000380E3B0E630E870ED00ED50E470F470F8E
:100070003D0F440F07060504030201001020304025
:1000800050607071727374757677675747372717AA
:1000900004031221304051627374655647372615A8
:1000A00011241FBECFE5D8E0DEBFCDBF11E0A0E632
:1000B000B0E0E4E7F5E202C005900D92AA33B10783
:1000C000D9F721E0AAE3B1E001C01D92A43DB20737
:1000D000E1F70E94AB110C94B8120C940000089741
:1000E00048F46830710540F481E04830510528F04B
:1000F00080E0089580E0089580E00895FF920F93D6
:100100001F93CF93DF93F82EEB018A010E946F00BB
:100110008823A9F0000F111F000F111F000F111FDE
:10012000C00FD11FC658DE4F488121E030E0C90121
:1001300002C0880F991FFA94E2F7842B8883DF911D
:10014000CF911F910F91FF900895FF920F931F93EE
:10015000CF93DF93F82EEB018A010E946F00882372
:10016000B1F0000F111F000F111F000F111FC00F62
:10017000D11FC658DE4F488121E030E0C90102C0DE
:10018000880F991FFA94E2F7809584238883DF9182
:10019000CF911F910F91FF900895FF920F931F939E
:1001A000CF93DF93F82EEB018A010E946F00882322
:1001B00099F0000F111F000F111F000F111FC00F2A
:1001C000D11FC658DE4F288130E0C90102C0959585
:1001D0008795FA94E2F78170DF91CF911F910F918B
:1001E000FF9008952130310519F40E947E00089592
:1001F0000E94A500089588309105A0F420E030E029
:10020000880F991F880F991F880F991F4FEFFC01C6
:10021000E20FF31FE658FE4F40832F5F3F4F283019
:100220003105A9F708958830910528F571E001C0DE
:10023000770F8A95EAF740E050E0B0E0A0E011C007
:10024000F901E80FF91FE658FE4F6081672B6083C4
:10025000019688309105A1F74F5F5F4F48305105F7
:1002600051F08B2F9A2F9A01220F331F220F331F29
:10027000220F331FE5CF089588309105A0F420E0C8
:1002800030E04FEFF901EE0FFF1FEE0FFF1FEE0FF3
:10029000FF1FE80FF91FE658FE4F40832F5F3F4FC7
:1002A0002830310579F70895893749F08A3761F0A8
:1002B000883771F4862F90E00E9413010895862FED
:1002C00090E00E943C010895862F90E00E94FB0080
:1002D000089560E070E0A0E090E010C0FA01E20F45
:1002E000F31FE658FE4F80832F5F3F4F28303105C4
:1002F000A9F76F5F7F4F6830710551F02A2F392FB2
:10030000AB01440F551F440F551F440F551FE6CF37
:1003100008956F5F7F4F2FEF30E0A90102C0440FB7
:10032000551F6A95E2F7BA016095A90102C0440F12
:10033000551F8A95E2F7CA01862308956F927F922E
:100340008F929F92AF92BF92CF92DF92EF92FF92E5
:100350000F931F93CF93DF935C014B01EA01690177
:100360003701281739072CF4982F8B2D5901C92EE6
:10037000D82E081519052CF4982D892D4801092F20
:10038000182F6C167D062CF49C2F8D2FE301692EFF
:10039000782EB601C5010E9489019E01220F331FEC
:1003A000220F331F220F331FF901E80DF91DE65804
:1003B000FE4F8083200F311FF901E658FE4F8083E6
:1003C0009301220F331F220F331F220F331FF90116
:1003D000E80DF91DE658FE4F8083200F311FF9010B
:1003E000E658FE4F808308151905DCF07401AE0154
:1003F000B701C5010E947E00A301B701C5010E949B
:100400007E00AE01B701C6010E947E00A301B701C4
:10041000C6010E947E008FEFE81AF80A0E151F052C
:1004200034F76C167D06C4F0AE01B401C5010E941C
:100430007E00AE01B801C5010E947E00AE01B4018C
:10044000C6010E947E00AE01B801C6010E947E0076
:1004500021966C167D0644F7DF91CF911F910F9185
:10046000FF90EF90DF90CF90BF90AF909F908F90D4
:100470007F906F900895282F30E0E82FE295E69561
:10048000E770E270982F991F9927991FE92B982FF1
:100490009695969596959470E92B869588708E2BF7
:1004A000F901EE0FFF1FE0718E2BB901660F771F68
:1004B000660F771F660F771F6072862BA901440FA6
:1004C000551F42955295507F5427407F54274074C2
:1004D000842B3695322F222737952795822B089526
:1004E000009761F408950000000000000000000083
:1004F00000002150C1F70197009711F02AE5F3CFD2
:1005000008952F923F924F925F926F927F928F92B7
:100510009F92AF92BF92CF92DF92EF92FF920F9392
:100520001F93CF93DF93182F5B01C12CD12C0F2E7B
:10053000F7E08F2E912CF02D00E0412C502E4FEF44
:10054000A416B40621F07401EC18FD0801C0760170
:1005500097012F5F3F4FC70101974FEFA416B406D5
:1005600019F4622E732E02C0682E792E212C302EA3
:100570003AC01A3771F4462D572DBE01C1010E94B1
:10058000CD00282F30E0A701BE01C1010E94F2007A
:100590001FC0193771F4AE01662D772DC1010E947D
:1005A000CD00282F30E0AE01B701C1010E94F2005A
:1005B0000FC0183769F4A101BE01862D972D0E9446
:1005C000CD00282F30E0A101BE01C7010E94F2003A
:1005D0002196C830D10569F68FEF281A380A48E00D
:1005E0002416310419F0C42DD52DC3CF8FEFC81AAE
:1005F000D80A48E0C416D10409F0A1CFAB20A094DA
:1006000031F40F2EF7E0EF2EF12CF02D02C0E12C8B
:10061000F12CA12CB12CC12CD12C22C01A3731F4D1
:10062000A701BE01C5010E94A5000FC0193731F412
:10063000AE01B701C5010E94A50007C0183729F413
:10064000A501BE01C7010E94A5002196C830D105B1
:1006500029F74FEFA41AB40A88E0A816B10419F0DC
:10066000CC2DDD2DDBCFDF91CF911F910F91FF902E
:10067000EF90DF90CF90BF90AF909F908F907F9042
:100680006F905F904F903F902F9008954F925F92A0
:100690006F927F928F929F92AF92BF92CF92DF9292
:1006A000EF92FF920F931F93CF93DF93CDB7DEB7F7
:1006B000C054D1090FB6F894DEBF0FBECDBF80E4A1
:1006C000EAE7F1E0DE01119601900D928A95E1F7DB
:1006D00080E00E946901CE0101964C01A12CB12C51
:1006E0000F2EF7E04F2EF02D512C612C712C2AC0CB
:1006F000F701808190E0002E02C0959587950A94BD
:10070000E2F780FF06C0A501B601802F912F0E945D
:100710007E000F5F1F4F0830110551F7FFEFEF1AF2
:10072000FF0A81E0C81AD10818F0062D172DE0CF76
:10073000EFEFAE1ABE0AF8E08F0E911C88E0A81603
:10074000B10421F07401C42CD52CEFCFC05CDF4F75
:100750000FB6F894DEBF0FBECDBFDF91CF911F91D2
:100760000F91FF90EF90DF90CF90BF90AF909F9050
:100770008F907F906F905F904F9008956F927F92CF
:100780008F929F92AF92BF92CF92DF92EF92FF92A1
:100790000F931F93CF93DF93CDB7DEB7C054D1092A
:1007A0000FB6F894DEBF0FBECDBF80E4EAE7F1E0FC
:1007B000DE01119601900D928A95E1F780E00E948A
:1007C0006901CE0101964C01A12CB12C612C712C38
:1007D0001AC0F70181917F010E943B02F601E00FF0
:1007E000F11FE658FE4F80830F5F1F4F0830110541
:1007F00081F7FFEFAF1ABF0A88E0880E911C98E0DE
:10080000A916B10459F07401062D172D6501CC0C01
:10081000DD1CCC0CDD1CCC0CDD1CDBCFC05CDF4F49
:100820000FB6F894DEBF0FBECDBFDF91CF911F9101
:100830000F91FF90EF90DF90CF90BF90AF909F907F
:100840008F907F906F900895CF93DF93CDB7DEB7F1
:10085000C054D1090FB6F894DEBF0FBECDBF80E4FF
:10086000EAE7F1E0DE01119601900D928A95E1F739
:1008700020E030E067E050E015C04081DC01AA0FC5
:10088000BB1FAA0FBB1FAA0FBB1FA20FB31FA658E7
:10089000BE4F4C933896019780F72F5F3F4F28301B
:1008A000310549F0E1E0F0E0EC0FFD1FE20FF31F2E
:1008B000862F952FE2CFC05CDF4F0FB6F894DEBFD6
:1008C0000FBECDBFDF91CF9108952F923F924F92EF
:1008D0005F926F927F928F929F92AF92BF92CF92D0
:1008E000DF92EF92FF920F931F93CF93DF9300D08D
:1008F00000D01F92CDB7DEB74C016894442441F874
:10090000512C6894CC24C7F8D12C612C712C0F2E5B
:10091000F6E03F2EF02D212C41C0BE016F5F7F4FCE
:100920000E949D0DCE0101967C01A42CB52C23C004
:10093000F701808190E09601002E02C03595279541
:100940000A94E2F782239323892B31F0A801B501A1
:1009500087E090E00E947E000F5F1F4F0830110576
:1009600039F7FFEFEF1AFF0A8FEFA81AB80A97E0DE
:10097000A916B10419F0062D172DDACF032D122D6B
:1009800088EE93E00E9470026FEF7FEF88E70E948D
:100990008102015011090115110591F7F4018191AE
:1009A0004F018111BACF08E010E088EE93E00E9479
:1009B00070026FEF7FEF88E70E94810201501109FA
:1009C0000115110591F70F900F900F900F900F9058
:1009D000DF91CF911F910F91FF90EF90DF90CF901B
:1009E000BF90AF909F908F907F906F905F904F904F
:1009F0003F902F900895EF92FF920F931F93CF9304
:100A0000DF93E82EC0E0162FD72F80E00E94690107
:100A10006C2F8E2D0E945401012FFD2E812F9D2FB2
:100A20000E947002CF5FC83081F7C7E080E00E946B
:100A300069016C2F8E2D0E945401802F9F2D0E94E2
:100A40007002C15098F7DF91CF911F910F91FF90E5
:100A5000EF9008956F927F928F929F92AF92BF9284
:100A6000CF92DF92EF92FF920F931F93CF93DF937A
:100A700080E00E9469016894AA24A1F8B12C0F2E8D
:100A8000FEEE6F2EF02D6894772471F80F2EFAE0A9
:100A9000EF2EF12CF02D08EE13E00F2EF1EF8F2E3C
:100AA00099249A94F02D0F2EFFEECF2EF2E0DF2E38
:100AB000F02D45C080E00E946901CE010E947002C5
:100AC0008FEF0E94690184E690E00E947002CE01DF
:100AD000B7010E94C111C8010E94C111C401861B47
:100AE000970BC80FD91F1C161D0624F3C8010E94BE
:100AF0007002C62DD72D80E00E946901C6018C1BB3
:100B00009D0B0E9470028FEF0E94690184E690E0C5
:100B10000E947002CE01B7010E94C111C8010E945B
:100B2000C111C401861B970BC80FD91F1C161D06C7
:100B300014F381E0A81AB108A114B10419F0C62D6C
:100B4000D72DB8CFDF91CF911F910F91FF90EF90EC
:100B5000DF90CF90BF90AF909F908F907F906F90DD
:100B600008952F923F924F925F926F927F928F9251
:100B70009F92AF92BF92CF92DF92EF92FF920F932C
:100B80001F93CF93DF93CDB7DEB728970FB6F894B6
:100B9000DEBF0FBECDBF9E838D836A01590118163B
:100BA00019060CF062C01C821B82212C312C0F2EE6
:100BB000F7E08F2E912CF02D2B01E89441F89B014A
:100BC000225031093A8329834CC08F81988588301F
:100BD000910524F43401681A790A05C06F8078847D
:100BE00098E0691A710880E00E94690181E090E054
:100BF0000E947002F894730183019301422D532DDA
:100C0000622D732D822D932D0E949E011C141D04B4
:100C100014F40E942404E1E04E16510411F40E94E1
:100C2000460329813A812230310510F40E94BE0327
:100C30007894C5010E94700280E00E9469018F8152
:100C40009885019698878F83409709F0BECFEB81F6
:100C5000FC813196FC83EB832D813E81E217F30703
:100C600021F02F8238863401BECF28960FB6F89433
:100C7000DEBF0FBECDBFDF91CF911F910F91FF90CF
:100C8000EF90DF90CF90BF90AF909F908F907F902C
:100C90006F905F904F903F902F9008958F929F920A
:100CA000AF92BF92CF92DF92EF92FF920F931F937A
:100CB000CF93DF935C016B0180E00E946901C0E08B
:100CC000D0E00F2EF3E08F2E912CF02D1C141D047C
:100CD00024F4C4018C1B9D0B01C0CE019401281B80
:100CE000390B049679018901AC01BC010E949E0177
:100CF000C5010E94700280E00E9469012196C43003
:100D0000D10521F7DF91CF911F910F91FF90EF90C7
:100D1000DF90CF90BF90AF909F908F9008958F926B
:100D20009F92AF92BF92CF92DF92EF92FF920F937A
:100D30001F93CF93DF937C01EB016130710521F4A8
:100D400080E00E94690155C08FEF0E94690151C087
:100D50000E943D1287709078992324F40197886F40
:100D60009F6F0196C82ED92E0E943D1287709078F1
:100D7000992324F40197886F9F6F0196A82EB92EAE
:100D80000E943D1287709078992324F40197886F10
:100D90009F6F0196882E992E209751F4AC016A2DF1
:100DA0007B2D8C2D9D2D0E94CD008130E1F40DC056
:100DB000C130D105C1F4482F592F6A2D7B2D8C2DC0
:100DC0009D2D0E94CD0081110EC09E01482D592DF0
:100DD0006A2D7B2D8C2D9D2D0E94F200C7010E9453
:100DE00070020F5F1F4F0F3F81E018070CF4B0CF68
:100DF00003C000E010E0ACCFDF91CF911F910F91C5
:100E0000FF90EF90DF90CF90BF90AF909F908F902A
:100E100008958F929F92AF92BF92CF92DF92EF92FE
:100E2000FF920F931F93CF93DF936C01181619064F
:100E30000CF045C0E12CF12C812C912C0E943D122C
:100E400083709078992324F401978C6F9F6F01969B
:100E50008C01181619061CF5C82DD92D0E943D12BB
:100E60005C010E943D12BC0167707078772334F4F6
:100E700061507109686F7F6F6F5F7F4FC501877029
:100E80009078992324F40197886F9F6F019647E02B
:100E900050E00E947E002196C017D107F9F688EE37
:100EA00093E00E9470026FEF7FEF8AE70E94810259
:100EB0008FEFE81AF80AEC14FD0409F0BFCFDF91B8
:100EC000CF911F910F91FF90EF90DF90CF90BF9047
:100ED000AF909F908F9008954F925F927F928F92E4
:100EE000AF92BF92CF92DF92EF92FF921F93CF9378
:100EF000DF93182FD62FC72F2A0180E00E946901A7
:100F0000AD2EBC2EE12CF12C712C812C0F2EF7E094
:100F1000CF2ED12CF02D36C04114510449F0F501EB
:100F2000EC0FFD1F80819601281B3109C90106C005
:100F3000F501EC0FFD1F2081822F90E01A3731F46C
:100F4000AC01BE01C7010E947E000EC0193731F40A
:100F5000AE01BC01C7010E947E0006C0183721F413
:100F6000A701BE010E947E002196C830D105A1F6DE
:100F70003FEFE31AF30A88E0A80EB11C28E0E2165E
:100F8000F10419F0C72DD82DC7CFDF91CF911F9154
:100F9000FF90EF90DF90CF90BF90AF908F907F90B9
:100FA0005F904F9008953F924F925F926F927F9221
:100FB0008F929F92AF92BF92CF92DF92EF92FF9269
:100FC0000F931F93CF93DF93CDB7DEB7C658D109E8
:100FD0000FB6F894DEBF0FBECDBF982E862E772EAB
:100FE000CB57DF4F59834883C558D0405901CE01B4
:100FF0000196CD57DF4F99838883C358D040DE01D7
:10100000AF5BBF4FCF57DF4FB983A883C158D040E4
:101010008D016D017C01D7011D927D010E943D1261
:1010200087709078992324F40197886F9F6F0196B9
:10103000F60181936F01E016F10669F76894EE24DA
:10104000E3F8F12CCF57DF4F3880C158D040CE574E
:10105000DF4F4880C258D040CD57DF4F5880C3582B
:10106000D040CC57DF4F6880C458D040C82CD72C14
:101070001DC080819D91891710F48F5F8083319608
:10108000E017F107B1F7A501BE016F5F7F4F892D12
:101090000E946C078C2C7D2C8C2D9D2D0E94700243
:1010A000F1E0EF1AF108E114F10429F0A32DB42DB9
:1010B000E52DF62DDECFCE018F579F4FFE01EF5B62
:1010C000FF4F27E02193E817F907E1F7CB57DF4FF0
:1010D00088819981C558D0400E9470026894EE249E
:1010E000E3F8F12CCF57DF4FC880C158D040CE571E
:1010F000DF4F6880C258D040CD57DF4F5880C3586B
:10110000D040CC57DF4FD880C458D04024C0AF0166
:101110003081DC012D91CD01321710F43F5F308317
:10112000DA013C91231710F431503C933196E017CB
:10113000F10769F7A501BE016F5F7F4F892D0E94FE
:101140006C07882D972D0E947002B1E0EB1AF10810
:10115000E114F10429F08C2D962DE52DFD2DD7CF2E
:10116000CA57DF4F0FB6F894DEBF0FBECDBFDF9179
:10117000CF911F910F91FF90EF90DF90CF90BF9094
:10118000AF909F908F907F906F905F904F903F9027
:1011900008952F923F924F925F926F927F928F921B
:1011A0009F92AF92BF92CF92DF92EF92FF920F93F6
:1011B0001F93CF93DF93CDB7DEB7C258D1090FB6D7
:1011C000F894DEBF0FBECDBF282E7B014A01590126
:1011D000CE018F5B9F4F8E010F571F4FFC01119265
:1011E000E017F107E1F7CF57DF4F19821882C15896
:1011F000D040CC24C394D12C382E492E512C612CB4
:101200000F2EF7E07F2EF02D81E0A816B10459F5DE
:101210008DC00E943D128F739078992324F401971A
:10122000806C9F6F01969C01E1E4F0E0EC0FFD1FE4
:10123000E80FF91F80818111ECCFCF57DF4F8881F4
:101240009981C158D0400196CF57DF4F9983888349
:10125000C158D040E1E4F0E0EC0FFD1FE20FF31FB6
:1012600091E0908323C082E0A816B104F9F4CF572F
:10127000DF4F88819981C158D04080349105B4F402
:10128000E1E4F0E0EC0FFD1FE80FF91F80818F5FB4
:101290008083CF57DF4F88819981C158D040019614
:1012A000CF57DF4F99838883C158D040E32DF42D69
:1012B000852D962DDF0120813FEF320F363010F45F
:1012C0002F5F208331962C91273009F401960E1759
:1012D0001F0781F78034910511F4C52CD62CDE014F
:1012E0001196E32DF42DE114F10419F480818C930F
:1012F00004C08081972D981B9C93319611960E17F0
:101300001F0789F7C4010E947002452D562DBE01AA
:101310006F5F7F4F822D0E946C0782B394E0892714
:1013200082BBC114D10409F06FCF0BC0CF57DF4F80
:1013300088819981C158D040803491050CF0B6CF96
:1013400068CFCE57DF4F0FB6F894DEBF0FBECDBFCC
:10135000DF91CF911F910F91FF90EF90DF90CF9091
:10136000BF90AF909F908F907F906F905F904F90C5
:101370003F902F9008959F92AF92BF92CF92DF92AD
:10138000EF92FF920F931F93CF93DF938C0180E036
:101390000E946901C0E0D0E0912CA12CFF24FA94B6
:1013A000D02EE12E15C0FC01E20FF31FE658FE4FD0
:1013B000F0822F5F3F4F28303105A9F7CD2CBE2C8E
:1013C0008D2D9E2D0E9470022196C830D10551F0BE
:1013D000292D3A2DCE01880F991F880F991F880F4C
:1013E000991FE1CFC801880F991F800F911F0E949C
:1013F0007002C0E0D0E000E010E013C0FA01E20F9C
:10140000F31FE658FE4F10822F5F3F4F2830310503
:10141000A9F78C2D9B2D0E9470022196C830D10512
:1014200051F0202F312FAE01440F551F440F551F8F
:10143000440F551FE3CFDF91CF911F910F91FF9084
:10144000EF90DF90CF90BF90AF909F9008954F9214
:101450005F926F927F928F929F92AF92BF92CF9244
:10146000DF92EF92FF920F931F93CF93DF934C0184
:101470006B013A01181619060CF042C0A12CB12CD0
:10148000412C512C38C00E943D127C010E943D121B
:101490008C010E943D12A70147705078552334F407
:1014A00041505109486F5F6F4F5F5F4FB8016770E0
:1014B0007078772334F461507109686F7F6F6F5FC4
:1014C0007F4F87709078992324F40197886F9F6FDE
:1014D00001960E947E002196CC16DD06A4F6C3017B
:1014E0000E94700280E00E9469018FEFA81AB80A7A
:1014F000A814B90429F0DD2094F3C42DD52DC3CF51
:10150000DF91CF911F910F91FF90EF90DF90CF90DF
:10151000BF90AF909F908F907F906F905F904F9013
:101520000895CF93DF93C1E0D0E048EC50E0BE01D6
:1015300085E090E00E94270A2196C431D105A9F7E1
:1015400048EC50E0BE0185E090E00E94270A219718
:101550002097B1F7DF91CF910895CF93DF93EC01FE
:10156000CA01DD23DCF0FE0120E030E0E830F105C7
:101570007CF42830310564F4DF01AA0FBB1FAA0FE9
:10158000BB1FAA0FBB1FA20FB31FA658BE4F6C9361
:101590002F5F3F4F3197C217D30744F70E94700265
:1015A000CE01DF91CF9108950F931F93CF93DF93D7
:1015B000EB018A01892B51F080E190E0AE01B80186
:1015C0000E94AD0A01979923CCF70AC080E090E011
:1015D000AE01B8010E94AD0A019680319105C4F3B5
:1015E000DF91CF911F910F9108952F923F924F92CB
:1015F0005F926F927F928F929F92AF92BF92CF92A3
:10160000DF92EF92FF920F931F93CF93DF93CDB7AB
:10161000DEB766970FB6F894DEBF0FBECDBF9A87D0
:1016200089871B015E874D87388B2F871A8B098B23
:101630004F3F5F4F19F0812C912C05C00F2EF7E022
:101640008F2E912CF02D89E090E0AC01A985BA8510
:101650004A1B5B0B5C874B870E943D126B857C8528
:101660000E94C1119C838B830E943D126B857C85F7
:101670000E94C1119E838D83EF85F8891E161F0677
:101680000CF09CC018861F8229853A853C8B2B8BD9
:101690000E943D128C010E943D1263E070E00E94A6
:1016A000C111FC013197C80163E070E00E94C111D3
:1016B0009C01215031094B815C81240F351F12168A
:1016C00013063CF48B859C852817390714F43C835A
:1016D0002B838D819E818E0F9F1F181619063CF457
:1016E000AB85BC858A179B0714F49E838D836D851B
:1016F0007E85822D0E948102E985FA851E161F06CD
:101700000CF04DC08B819C812F01480E591E7C012D
:101710006D807E8083012B893C89020F131F5C0141
:10172000A618B708A301481B590B5A83498330C038
:101730005AE72516310439F4A4016D897E89C70161
:101740000E947E0017C089E72816310439F44D89BC
:101750005E89B401C7010E947E000CC098E729167B
:10176000310441F44D895E894A0D5B1DB601C40107
:101770000E947E00AD89BE891196BE8BAD8BA017ED
:10178000B107B1F6BFEFEB1AFB0AE414F50439F028
:101790007E8A6D8AC980DA80CE0CDF1CC9CF898928
:1017A0009A890E947002EF81F8853196F887EF835D
:1017B0002F853889E217F30709F06ACF66960FB6CE
:1017C000F894DEBF0FBECDBFDF91CF911F910F9177
:1017D000FF90EF90DF90CF90BF90AF909F908F9051
:1017E0007F906F905F904F903F902F9008958F92D1
:1017F0009F92AF92BF92CF92DF92EF92FF920F93A0
:101800001F93CF93DF935C016B0181E0C81AD1086D
:101810001C141D040CF042C085010C0D1D1D812CF3
:10182000912C25C0F7018081682F6F7070E0829540
:101830008F70AE0190E00E94CD00F8019081282FBA
:1018400030E0692F6F7070E0892F82958F70AE0144
:1018500090E00E94F2002196C830D10519F7F1E01E
:10186000CF1AD10801501109C114D104B9F0C82D03
:10187000D92D7801F1E0EF1AF108D4CFF50180817C
:10188000682F6F7070E082958F70AE0190E00E94BB
:10189000A5002196C830D10589F703C0C0E0D0E08B
:1018A000EDCFDF91CF911F910F91FF90EF90DF90DF
:1018B000CF90BF90AF909F908F9008954F925F927E
:1018C0006F927F928F929F92AF92BF92CF92DF9250
:1018D000EF92FF920F931F93CF93DF93CDB7DEB7B5
:1018E0006C970FB6F894DEBF0FBECDBF6C015B01E5
:1018F0004CE150E0BE016F5F7F4F80E00E94870D9A
:101900001C141D04BCF5E12CF12C04E010E00F2E9A
:10191000F3E08F2E912CF02D0F2EF7E06F2EF02D8F
:10192000712C412C512C0E943D12B4010E94C11116
:101930000197080F191F0830110514F0062D172DF7
:10194000112314F4042D152D6CE170E0CE010196E5
:101950000E94F70BA801662D772D842D952D0E94EE
:101960007E00C5010E9470028FEFE81AF80AEC149D
:10197000FD04C9F66C960FB6F894DEBF0FBECDBF5E
:10198000DF91CF911F910F91FF90EF90DF90CF905B
:10199000BF90AF909F908F907F906F905F904F908F
:1019A00008952F923F924F925F926F927F928F9203
:1019B0009F92AF92BF92CF92DF92EF92FF920F93DE
:1019C0001F93CF93DF93CDB7DEB7A5970FB6F894EB
:1019D000DEBF0FBECDBF8AA39BA38B014CE150E0BD
:1019E000BE016F5F7F4F80E00E94870DF80180810C
:1019F000882309F470C098012F5F3F4F3DA32CA3AB
:101A00004E0132E2830E911C0F2EF7E0CF2ED12C27
:101A1000F02D612C712C4C2C5D2C2AA03BA0BE011A
:101A2000635E7F4F0E949D0DCE014D965C01F501D6
:101A3000E1905F01062D172DF12CC601801B910B43
:101A4000970102C0359527958A95E2F720FF08C0D7
:101A5000A801642D752D862D972D0E947E0007C04C
:101A6000A801642D752D862D972D0E94A5000F5F6E
:101A70001F4F0830110509F76CE170E0CE010196A7
:101A80000E94F70B822D932D0E947002A814B904B6
:101A900071F66CE170E0CE0101960E94F70B822D89
:101AA000932D0E947002ECA1FDA18191FDA3ECA3F6
:101AB0008111B5CF10C06CE170E0CE0101960E949B
:101AC000F70B8AA19BA10E94700201501109011518
:101AD000110589F703C00CE110E0EDCFA5960FB614
:101AE000F894DEBF0FBECDBFDF91CF911F910F9154
:101AF000FF90EF90DF90CF90BF90AF909F908F902E
:101B00007F906F905F904F903F902F90089581301D
:101B100019F0E0E0F0E002C0ECE1F0E01416150688
:101B20005CF4EC58FF4FDB01640F751F84918D93BB
:101B30003196A617B707D1F70895EF92FF920F934A
:101B40001F93CF93DF93805290E07C01EE0CFF1C3B
:101B5000EE0CFF1C8E0D9F1D062F172FC0E0D0E04E
:101B60009C01205D3F4F7901C7018C0F9D1F0E9492
:101B70004D12F80181938F012196C530D105A1F74F
:101B8000DF91CF911F910F91FF90EF9008950F93E8
:101B90001F93CF93DF93EC0180E00E946901C03175
:101BA000D10508F074C1FE01E65DFF4F0C94D5111C
:101BB00064E271E088EE93E00E94D10C6CC184E68F
:101BC00090E00E94090767C18CE291E00E946504E1
:101BD00062C1C0E04C2F447050E06C2F637070E025
:101BE00022EC31E081E090E00E94B105CF5FC83087
:101BF00089F760E070E080E293E00E944E0661E0C9
:101C000070E080E293E00E944E0660E070E080E2C7
:101C100093E00E944E0661E070E080E293E00E9453
:101C20004E0639C161E070E085E090E00E948F06C9
:101C300060E070E085E090E00E948F0661E070E077
:101C400085E090E00E948F0660E070E085E090E023
:101C50000E948F0620C108EE13E024E630E04FEF2B
:101C60005FEF6AE770E082E090E00E94F50A13C13E
:101C70000E942A0510C160E971E08AE790E00E94A5
:101C8000FB0460E971E088E790E00E94FB0460E9F2
:101C900071E089E790E00E94FB0460E971E08AE767
:101CA00090E00E94FB0460E971E088E790E00E9408
:101CB000FB0460E971E089E790E00E94FB0480E0AA
:101CC0000E946901E8C080E00E9469014FEF50E086
:101CD00060E273E080E090E00E94D40A40E050E0CF
:101CE00060E273E080E090E00E94D40A4FEF50E0A1
:101CF00060E273E081E090E00E94D40A4FEF50E090
:101D000060E273E081E090E00E94D40AC4C020E069
:101D100030E048E853E166E272E08AE70E94D307C8
:101D200021E030E048E853E166E272E08AE70E9491
:101D3000D30720E030E048E853E166E272E08AE74A
:101D40000E94D30721E030E048E853E166E272E008
:101D50008AE70E94D30720E030E048E853E166E2DA
:101D600072E088E70E94D30721E030E048E853E1C1
:101D700066E272E088E70E94D30720E030E048E89E
:101D800053E166E272E089E70E94D30721E030E088
:101D900048E853E166E272E089E70E94D3077BC01E
:101DA0008CEB92E00E94BB0976C021E030E048EC69
:101DB00050E060E070E08AE70E94C9088CED95E091
:101DC0000E94700221E030E048EC50E061E070E0F9
:101DD0008AE70E94C9082FED83E994E021508040F2
:101DE0009040E1F700C0000022E030E048EC50E015
:101DF00060E070E08AE70E94C9082FED83E994E073
:101E0000215080409040E1F700C0000022E030E027
:101E100048EC50E061E070E08AE70E94C9082FEDCD
:101E200083E994E0215080409040E1F700C0000039
:101E300021E030E048EC50E060E070E089E70E948B
:101E4000C9082FED83E994E0215080409040E1F7EC
:101E500000C0000021E030E048EC50E061E070E0BC
:101E600089E70E94C9082FED83E994E02150804062
:101E70009040E1F700C000000EC064EF71E088EC14
:101E800090E00E945E0C07C00E94910A04C084E3A7
:101E900091E00E946504DF91CF911F910F91089509
:101EA0001F920F920FB60F9211242F933F938F938F
:101EB0009F93EF93FF9315BAC39A80E090E020912F
:101EC000BF01FC0138E0239FE00DF11D1124E6580D
:101ED000FE4F20812BBB28B331E0380F3770287FAD
:101EE000232B28BB01968830910549F7C398209190
:101EF000BF0181E090E002C0880F991F2A95E2F7A8
:101F000085BB8091BF018F5F8093BF018091BF012E
:101F1000883011F41092BF01FF91EF919F918F9142
:101F20003F912F910F900FBE0F901F90189581E059
:101F300090E00E94421288EE93E00E94700281E0DD
:101F400090E00895009711F418BA0CC08130910503
:101F500019F421E028BB0CC08230910519F422E06D
:101F600028BB0CC08330910519F423E028BB0CC0BA
:101F70008430910519F424E028BB0CC0853091050C
:101F800019F425E028BB0CC08630910519F486E0D1
:101F900088BB08958730910519F487E088BB0895C0
:101FA000089709F418BA08958130910519F421E0D1
:101FB00025BB0CC08230910519F422E025BB0CC072
:101FC0008330910519F424E025BB0CC084309105C1
:101FD00019F428E025BB0CC08530910519F420E1E7
:101FE00025BB0CC08630910519F480E285BB0895AD
:101FF0008730910519F480E485BB0895089711F4A2
:1020000080E885BB08958130910511F4A89A0AC033
:102010008230910511F4A99A0AC08330910511F418
:10202000AA9A0AC08430910511F4AB9A0AC085308F
:10203000910511F4AC9A0AC08630910511F4AD9A5D
:1020400008958730910511F4AE9A0895089709F420
:10205000AF9A0895009741F4FB01EE0FFF1FEC5E6D
:10206000FE4F20812BBB16C08130910541F4FB014E
:10207000EE0FFF1FEC5FFE4F20812BBB16C082309E
:10208000910541F4FB01EE0FFF1FEC50FF4F208143
:102090002BBB16C08330910541F4FB01EE0FFF1FEF
:1020A000EC51FF4F20812BBB16C08430910541F4C9
:1020B000FB01EE0FFF1FEC52FF4F20812BBB16C020
:1020C0008530910541F4FB01EE0FFF1FEC53FF4FEC
:1020D00020812BBB16C08630910541F4FB01EE0F29
:1020E000FF1FEC54FF4F20812BBB16C0873091059A
:1020F00041F4FB01EE0FFF1FEC55FF4F20812BBB7E
:1021000016C08830910541F4FB01EE0FFF1FEC561D
:10211000FF4F20812BBB16C08930910541F4FB0194
:10212000EE0FFF1FEC57FF4F80818BBB08958A3065
:10213000910541F4FB01EE0FFF1FEC58FF4F80812A
:102140008BBB08950B9739F4FB01EE0FFF1FEC5981
:10215000FF4F80818BBB0895AF92BF92CF92DF92E9
:10216000EF92FF920F931F93CF93DF938FEF8ABB72
:102170009FEE97BB84BB1BBA15BA80E188BB80E297
:1021800082BB1BBA1092BE011092BD0180E090E0AC
:102190000E94A20F8FEC97E00197F1F700C00000BA
:1021A0002091BD013091BE012F5F3F4F3093BE01A2
:1021B0002093BD01293031051CF4822F932FE8CFE5
:1021C0008FEF85BB8FE19EE40197F1F700C000001F
:1021D0009FE728E381E0915020408040E1F700C074
:1021E0000000CC24C394D12CE12CF12CAA24A3947C
:1021F000B12C06C09FEFE91AF90A2FEFC21AD20AD2
:10220000870118BA1092BC011092BB0160E070E027
:10221000C8010E942A108DE08A95F1F70000809194
:10222000BB019091BC0101960E94A20F2091BB01BD
:102230003091BC012F5F3F4F3093BC012093BB0115
:10224000283031051CF4622F732FE2CFCA2DDB2D0D
:10225000CE010E94D40F8FEF96E721E0815090408D
:102260002040E1F700C000002196C930D10581F778
:102270000430110559F415BA8FEF94E32CE0815026
:1022800090402040E1F700C00000B4CF8CE0C816B9
:10229000D1040CF4AFCF15BA8FEF8BBB8FE99FE061
:1022A0000197F1F700C000001092BE011092BD012D
:1022B00080E090E00E94A20F8FEC97E00197F1F789
:1022C00000C000002091BD013091BE012F5F3F4F43
:1022D0003093BE012093BD01293031051CF4822FBB
:1022E000932FE8CF81E090E09093BE018093BD01F1
:1022F00090E00E9403109FE72AE186E09150204081
:102300008040E1F700C000002091BD013091BE0186
:102310002F5F3F4F3093BE012093BD01293031051F
:102320001CF4822F932FE5CF8AE083BD85B58560AD
:1023300085BD85B5886085BD14BC89B7806889BFB7
:10234000DF91CF911F910F91FF90EF90DF90CF9091
:10235000BF90AF9008950E94AC1081E08093BF01C0
:102360000E94970F7894C0E0D0E000E010E0CE012A
:102370000E94C70D2196C031D105CCF3C02FD12FBB
:10238000F6CF97FB072E16F4009407D077FD09D0FF
:102390000E94DB1107FC05D03EF4909581959F4F7C
:1023A0000895709561957F4F0895EE0FFF1F05907A
:1023B000F491E02D0994AA1BBB1B51E107C0AA1F91
:1023C000BB1FA617B70710F0A61BB70B881F991FD6
:1023D0005A95A9F780959095BC01CD0108958F92EB
:1023E0009F92AF92BF92CF92DF92EF92FF92CF93E4
:1023F000DF93EC01688179818A819B816115710588
:102400008105910521F464E279ED8BE597E02DE1FA
:1024100033EF41E050E00E94551249015A019B01FF
:10242000AC01A7EAB1E40E9474126B017C01ACEE2E
:10243000B4EFA50194010E948212C60ED71EE81EB9
:10244000F91EF7FE06C081E0C81AD108E10880E84D
:10245000F80AC882D982EA82FB82C6019F77DF919F
:10246000CF91FF90EF90DF90CF90BF90AF909F9073
:102470008F9008950E94EF11089580E690E00E94E9
:10248000EF110895A0E0B0E08093600090936100A8
:10249000A0936200B09363000895E199FECF9FBBC3
:1024A0008EBBE09A99278DB30895052E97FB1EF4F5
:1024B00000940E946C1257FD07D00E94871207FCFF
:1024C00003D04EF40C946C125095409530952195A4
:1024D0003F4F4F4F5F4F0895909580957095619550
:1024E0007F4F8F4F9F4F08950E94A912A59F900D77
:1024F000B49F900DA49F800D911D11240895B7FFE6
:102500000C9474120E947412821B930B0895A1E222
:102510001A2EAA1BBB1BFD010DC0AA1FBB1FEE1F5D
:10252000FF1FA217B307E407F50720F0A21BB30BA8
:10253000E40BF50B661F771F881F991F1A9469F724
:1025400060957095809590959B01AC01BD01CF0180
:102550000895A29FB001B39FC001A39F700D811D7C
:102560001124911DB29F700D811D1124911D08959C
:10257000F894FFCF01000000810081008100FF007E
:10258000FF00810081008100C000C000C000FF008A
:10259000FF00C000C000C000FF00FF0018001800CE
:1025A00018001800FF00FF000000220051009100F9
:1025B0009100890046000000810081008100FF0039
:1025C000FF008100810081000000FF00880088007A
:1025D00088008C00720001000000FF008100810073
:1025E0008100420024001800C000C000C000FF00AD
:1025F000FF00C000C000C000810081008100FF001A
:10260000FF00810081008100FF00FF0060003000BA
:1026100018000C00FF00FF00F800F800860003001F
:1026200003000600F800F8000000220051009100AD
:10263000910089004600000057454C434F4D45002E
:1026400044524953485449004641494C0000FFFF59
:00000001FF
