S00E00004A617972616A2E73726563B5
S11300000C9442000C9454000C9454000C9454002E
S11300100C9464000C9454000C9454000C945400FC
S11300200C9454000C9454000C9454000C945400FC
S11300300C9454000C9454000C9454000C945400EC
S11300400C9454000C9454000C9454000C945400DC
S11300500C9454008100840087008A008D00900075
S113006093009600D200D400D600D800DA00DC0059
S1130070DE00E000F900FB00FD00FF0001010301C8
S11300800501070111241FBECFE5D8E0DEBFCDBFB7
S113009024E0A0E6B0E001C01D92A636B207E1F765
S11300A00E9456000C943D010C9400008FEF8ABB13
S11300B087BB84BB85B58D6085BD89B7806889BFE2
S11300C08AE083BD7894FFCF1F920F920FB60F92F0
S11300D011242F933F934F935F936F937F938F9349
S11300E09F93AF93BF93CF93EF93FF93E0916000FF
S11300F0F0916100E830F105D8F4E65DFF4F0C940F
S1130100370181E088BB14C082E088BB11C084E061
S113011088BB0EC088E088BB0BC080E188BB08C0E8
S113012080E288BB05C080E488BB02C080E888BB4D
S113013015BA1092630010926200C7E076E065E0A1
S113014054E043E032E021E01BBA109265001092C3
S11301506400E0E0F0E0A0916000B0916100AA0FBB
S1130160BB1FAA0FBB1FAA0FBB1F809162009091F7
S11301706300A80FB91FAA0FBB1FAA0FBB1FAA0FAA
S1130180BB1FAE0FBF1FAA0FBB1FAA59BF4F8D9134
S11301909C910197B1F4E830F10598F4EE5CFF4FBF
S11301A00C943701D89A0DC0D99A0BC0DA9A09C0B9
S11301B0DB9A07C0DC9A05C0DD9A03C0DE9A01C051
S11301C0DF9AE0916400F09165003196F093650048
S11301D0E0936400E830F1050CF4BDCFE0916200D7
S11301E0F0916300E830F10598F4E65CFF4F0C945D
S11301F0370125BB0DC035BB0BC045BB09C055BB82
S113020007C065BB05C075BB03C0C5BB01C015BA3B
S113021080916200909163000196909363008093B3
S1130220620008970CF490CF809160009091610077
S113023001968830910529F09093610080936000C5
S113024004C01092610010926000FF91EF91CF9171
S1130250BF91AF919F918F917F916F915F914F91DA
S11302603F912F910F900FBE0F901F901895EE0F96
S1110270FF1F0590F491E02D0994F894FFCF40
S9030000FC
